{
  "contractName": "helloworld",
  "abi": [
    {
      "constant": true,
      "inputs": [],
      "name": "PrintHelloWorld",
      "outputs": [
        {
          "name": "",
          "type": "string"
        }
      ],
      "payable": false,
      "stateMutability": "pure",
      "type": "function"
    },
    {
      "constant": true,
      "inputs": [],
      "name": "Run",
      "outputs": [
        {
          "name": "",
          "type": "string"
        }
      ],
      "payable": false,
      "stateMutability": "pure",
      "type": "function"
    }
  ],
  "bytecode": "0x608060405234801561001057600080fd5b50610217806100206000396000f30060806040526004361061004c576000357c0100000000000000000000000000000000000000000000000000000000900463ffffffff1680635da0a987146100515780637adce558146100e1575b600080fd5b34801561005d57600080fd5b50610066610171565b6040518080602001828103825283818151815260200191508051906020019080838360005b838110156100a657808201518184015260208101905061008b565b50505050905090810190601f1680156100d35780820380516001836020036101000a031916815260200191505b509250505060405180910390f35b3480156100ed57600080fd5b506100f66101ae565b6040518080602001828103825283818151815260200191508051906020019080838360005b8381101561013657808201518184015260208101905061011b565b50505050905090810190601f1680156101635780820380516001836020036101000a031916815260200191505b509250505060405180910390f35b60606040805190810160405280600781526020017f48657920486f2100000000000000000000000000000000000000000000000000815250905090565b60606040805190810160405280600b81526020017f48656c6c6f20576f726c640000000000000000000000000000000000000000008152509050905600a165627a7a72305820bbfcd830a00a54b95743a3ad496ce603a31ca76092821a1d2748d014b8bb2ec90029",
  "source": "pragma solidity ^0.4.22;\r\n\r\ncontract helloworld {\r\n\r\n    function PrintHelloWorld () public pure returns (string)\r\n    {\r\n        return \"Hello World\";\r\n    }\r\n\r\n    function Run () public pure returns (string)\r\n    {\r\n        return \"Hey Ho!\";\r\n    }\r\n}",
  "sourcePath": "D:\\Development\\Blockchain\\helloworld\\contracts\\helloworld.sol",
  "compiler": {
    "name": "solc",
    "version": "0.4.24+commit.e67f0147.Emscripten.clang"
  },
  "schemaVersion": "2.0.1",
  "updatedAt": "2018-09-29T20:08:36.466Z"
}