{
  "contractName": "Wrestling",
  "abi": [
    {
      "constant": true,
      "inputs": [],
      "name": "theWinner",
      "outputs": [
        {
          "name": "",
          "type": "address"
        }
      ],
      "payable": false,
      "stateMutability": "view",
      "type": "function"
    },
    {
      "constant": true,
      "inputs": [],
      "name": "wrestler2",
      "outputs": [
        {
          "name": "",
          "type": "address"
        }
      ],
      "payable": false,
      "stateMutability": "view",
      "type": "function"
    },
    {
      "constant": true,
      "inputs": [],
      "name": "wrestler1Played",
      "outputs": [
        {
          "name": "",
          "type": "bool"
        }
      ],
      "payable": false,
      "stateMutability": "view",
      "type": "function"
    },
    {
      "constant": true,
      "inputs": [],
      "name": "wrestler1",
      "outputs": [
        {
          "name": "",
          "type": "address"
        }
      ],
      "payable": false,
      "stateMutability": "view",
      "type": "function"
    },
    {
      "constant": true,
      "inputs": [],
      "name": "gameFinished",
      "outputs": [
        {
          "name": "",
          "type": "bool"
        }
      ],
      "payable": false,
      "stateMutability": "view",
      "type": "function"
    },
    {
      "constant": true,
      "inputs": [],
      "name": "wrestler2Played",
      "outputs": [
        {
          "name": "",
          "type": "bool"
        }
      ],
      "payable": false,
      "stateMutability": "view",
      "type": "function"
    },
    {
      "inputs": [],
      "payable": false,
      "stateMutability": "nonpayable",
      "type": "constructor"
    },
    {
      "anonymous": false,
      "inputs": [
        {
          "indexed": false,
          "name": "wrestler1",
          "type": "address"
        },
        {
          "indexed": false,
          "name": "wrestler2",
          "type": "address"
        }
      ],
      "name": "WrestlingStartsEvent",
      "type": "event"
    },
    {
      "anonymous": false,
      "inputs": [
        {
          "indexed": false,
          "name": "wrestler1Deposit",
          "type": "uint256"
        },
        {
          "indexed": false,
          "name": "wrestler2Deposit",
          "type": "uint256"
        }
      ],
      "name": "EndOfRoundEvent",
      "type": "event"
    },
    {
      "anonymous": false,
      "inputs": [
        {
          "indexed": false,
          "name": "winner",
          "type": "address"
        },
        {
          "indexed": false,
          "name": "gains",
          "type": "uint256"
        }
      ],
      "name": "EndOfGameEvent",
      "type": "event"
    },
    {
      "constant": false,
      "inputs": [],
      "name": "registerAsAnOpponent",
      "outputs": [],
      "payable": false,
      "stateMutability": "nonpayable",
      "type": "function"
    },
    {
      "constant": false,
      "inputs": [],
      "name": "wrestle",
      "outputs": [],
      "payable": true,
      "stateMutability": "payable",
      "type": "function"
    },
    {
      "constant": false,
      "inputs": [],
      "name": "withdraw",
      "outputs": [],
      "payable": false,
      "stateMutability": "nonpayable",
      "type": "function"
    }
  ],
  "bytecode": "0x608060405234801561001057600080fd5b50336000806101000a81548173ffffffffffffffffffffffffffffffffffffffff021916908373ffffffffffffffffffffffffffffffffffffffff160217905550610940806100606000396000f300608060405260043610610099576000357c0100000000000000000000000000000000000000000000000000000000900463ffffffff16806303cc55971461009e5780633ccfd60b146100a85780639d24e482146100bf5780639e07f92a146101165780639ede38581461016d578063a8b42f1f1461019c578063e2f0a978146101b3578063f0f324971461020a578063f973728e14610239575b600080fd5b6100a6610268565b005b3480156100b457600080fd5b506100bd6104df565b005b3480156100cb57600080fd5b506100d461059e565b604051808273ffffffffffffffffffffffffffffffffffffffff1673ffffffffffffffffffffffffffffffffffffffff16815260200191505060405180910390f35b34801561012257600080fd5b5061012b6105c4565b604051808273ffffffffffffffffffffffffffffffffffffffff1673ffffffffffffffffffffffffffffffffffffffff16815260200191505060405180910390f35b34801561017957600080fd5b506101826105ea565b604051808215151515815260200191505060405180910390f35b3480156101a857600080fd5b506101b16105fd565b005b3480156101bf57600080fd5b506101c8610777565b604051808273ffffffffffffffffffffffffffffffffffffffff1673ffffffffffffffffffffffffffffffffffffffff16815260200191505060405180910390f35b34801561021657600080fd5b5061021f61079c565b604051808215151515815260200191505060405180910390f35b34801561024557600080fd5b5061024e6107af565b604051808215151515815260200191505060405180910390f35b600460009054906101000a900460ff1615801561032957506000809054906101000a900473ffffffffffffffffffffffffffffffffffffffff1673ffffffffffffffffffffffffffffffffffffffff163373ffffffffffffffffffffffffffffffffffffffff1614806103285750600160009054906101000a900473ffffffffffffffffffffffffffffffffffffffff1673ffffffffffffffffffffffffffffffffffffffff163373ffffffffffffffffffffffffffffffffffffffff16145b5b151561033457600080fd5b6000809054906101000a900473ffffffffffffffffffffffffffffffffffffffff1673ffffffffffffffffffffffffffffffffffffffff163373ffffffffffffffffffffffffffffffffffffffff1614156103da5760001515600160149054906101000a900460ff1615151415156103ab57600080fd5b60018060146101000a81548160ff02191690831515021790555034600260008282540192505081905550610427565b60001515600160159054906101000a900460ff1615151415156103fc57600080fd5b60018060156101000a81548160ff021916908315150217905550346003600082825401925050819055505b600160149054906101000a900460ff16801561044f5750600160159054906101000a900460ff165b156104dd576002600354026002541015156104935761048e6000809054906101000a900473ffffffffffffffffffffffffffffffffffffffff166107c2565b6104dc565b60028054026003541015156104d2576104cd600160009054906101000a900473ffffffffffffffffffffffffffffffffffffffff166107c2565b6104db565b6104da61089b565b5b5b5b565b600460009054906101000a900460ff16801561054857503373ffffffffffffffffffffffffffffffffffffffff16600460019054906101000a900473ffffffffffffffffffffffffffffffffffffffff1673ffffffffffffffffffffffffffffffffffffffff16145b151561055357600080fd5b3373ffffffffffffffffffffffffffffffffffffffff166108fc6005549081150290604051600060405180830381858888f1935050505015801561059b573d6000803e3d6000fd5b50565b600460019054906101000a900473ffffffffffffffffffffffffffffffffffffffff1681565b600160009054906101000a900473ffffffffffffffffffffffffffffffffffffffff1681565b600160149054906101000a900460ff1681565b600073ffffffffffffffffffffffffffffffffffffffff16600160009054906101000a900473ffffffffffffffffffffffffffffffffffffffff1673ffffffffffffffffffffffffffffffffffffffff1614151561065a57600080fd5b33600160006101000a81548173ffffffffffffffffffffffffffffffffffffffff021916908373ffffffffffffffffffffffffffffffffffffffff1602179055507fd4443f0433b17d5fcbda14745060c62f4fd645677efd560e394d49cc6b73b9e56000809054906101000a900473ffffffffffffffffffffffffffffffffffffffff16600160009054906101000a900473ffffffffffffffffffffffffffffffffffffffff16604051808373ffffffffffffffffffffffffffffffffffffffff1673ffffffffffffffffffffffffffffffffffffffff1681526020018273ffffffffffffffffffffffffffffffffffffffff1673ffffffffffffffffffffffffffffffffffffffff1681526020019250505060405180910390a1565b6000809054906101000a900473ffffffffffffffffffffffffffffffffffffffff1681565b600460009054906101000a900460ff1681565b600160159054906101000a900460ff1681565b6001600460006101000a81548160ff02191690831515021790555080600460016101000a81548173ffffffffffffffffffffffffffffffffffffffff021916908373ffffffffffffffffffffffffffffffffffffffff160217905550600354600254016005819055507f3f2952ce66b76d3fa9af8c50904aae1f561010fa49a6246375a5b60886b79a7381600554604051808373ffffffffffffffffffffffffffffffffffffffff1673ffffffffffffffffffffffffffffffffffffffff1681526020018281526020019250505060405180910390a150565b60018060146101000a81548160ff02191690831515021790555060018060156101000a81548160ff0219169083151502179055507f4a06b026e39d5ecf4150ef1983227e240bcd23677c8d89479f9521c4e7bed63e600254600354604051808381526020018281526020019250505060405180910390a15600a165627a7a7230582086f0378bd82490025982f1584b9607e0eb3f6689bd81f194f7740cd7735712640029",
  "source": "pragma solidity ^0.4.18;\r\n\r\n\r\ncontract Wrestling {\r\n    address public wrestler1; // Main contenders.\r\n    address public wrestler2;\r\n    \r\n    bool public wrestler1Played;    // True if a wrestler has made a bet.\r\n    bool public wrestler2Played;\r\n\r\n    uint private wrestler1Deposit;  // The amount of a bet (deposit).\r\n    uint private wrestler2Deposit;\r\n\r\n    bool public gameFinished;   // True if game has ended.\r\n    address public theWinner;   // Address of the winner.\r\n    uint gains; // The amount gained.\r\n\r\n    event WrestlingStartsEvent(address wrestler1, address wrestler2);\r\n\r\n    event EndOfRoundEvent(uint wrestler1Deposit, uint wrestler2Deposit);\r\n\r\n    event EndOfGameEvent(address winner, uint gains);\r\n\r\n    constructor () public \r\n    {\r\n        wrestler1 = msg.sender;\r\n    }\r\n\r\n    function registerAsAnOpponent () public\r\n    {\r\n        require(wrestler2 == address(0));\r\n\r\n        wrestler2 = msg.sender;\r\n        emit WrestlingStartsEvent(wrestler1, wrestler2);\r\n    }\r\n\r\n    function wrestle () public payable\r\n    {\r\n        require(!gameFinished && (msg.sender == wrestler1 || msg.sender == wrestler2));\r\n\r\n        if (msg.sender == wrestler1) {\r\n            require(wrestler1Played == false);\r\n            wrestler1Played = true;\r\n            wrestler1Deposit += msg.value;\r\n        } else {\r\n            require(wrestler2Played == false);\r\n            wrestler2Played = true;\r\n            wrestler2Deposit += msg.value;\r\n        }\r\n\r\n        if (wrestler1Played && wrestler2Played) {\r\n            if (wrestler1Deposit >= wrestler2Deposit * 2) {\r\n                endOfGame(wrestler1);\r\n            } else if (wrestler2Deposit >= wrestler1Deposit * 2) {\r\n                endOfGame(wrestler2);\r\n            } else {\r\n                endOfRound();\r\n            }\r\n        }\r\n    }\r\n\r\n    function endOfRound() internal\r\n    {\r\n        wrestler1Played = true;\r\n        wrestler2Played = true;\r\n\r\n        emit EndOfRoundEvent(wrestler1Deposit, wrestler2Deposit);\r\n    }\r\n\r\n    function endOfGame(address winner) internal\r\n    {\r\n        gameFinished = true;\r\n        theWinner = winner;\r\n\r\n        gains = wrestler1Deposit + wrestler2Deposit;\r\n        emit EndOfGameEvent(winner, gains);\r\n    }\r\n\r\n    function withdraw() public \r\n    {\r\n        require(gameFinished && theWinner == msg.sender);\r\n\r\n        msg.sender.transfer(gains);\r\n    }\r\n\r\n    // function withdraw () public\r\n    // {\r\n    //     require(gameFinished && theWinner == msg.sender);\r\n\r\n    //     uint amount = gains;\r\n    //     gains = 0;\r\n    //     msg.sender.transfer(amount);\r\n    // }\r\n}",
  "sourcePath": "D:\\Development\\Blockchain\\helloworld\\contracts\\Wrestling.sol",
  "compiler": {
    "name": "solc",
    "version": "0.4.24+commit.e67f0147.Emscripten.clang"
  },
  "schemaVersion": "2.0.1",
  "updatedAt": "2018-10-01T22:50:57.634Z"
}